:4000000080673030303030307e3030307e3030307e3030307e3030307e3030307e3030307e3030307e3030307e3030307e3030307e3030307e3030307e3030307e303030f5
:400040007e3030307e3030307e3030307e3030307e3030307e3030307e3030307e3030307e3030307e303030711062fa0062e38770ef50202850402850602862e33841fe08
:40008000fb50804e62e33855f80055f900711062e00270ef62e338627105627505627905627d0562d10750004e62d30762d00062d50062d40071c07c033162d00050025787
:4000c0002a0828531918750900284b5119800475090062e300082860d574a04b1875090008285319187509000828a01c53181875090008283f194719ffb0065dd57460d58f
:40010000187a18bfeb8fc9187509000828531850003f194719ffb0085dd57460d550007a18bfef188faa18711070ef62e000711062e00243e78070ef62e2007c098e8fff7a
:4001400050107f3030303030303030303030303030303030303030303030303030303030303030303030303030303030303030303030303030303030303030303030303030
:40018000303030303030303030303030303030303030303030303030303030303030303052483d0043002e002d00543d0052483d002e00543d006028660063056500e60002
:4001c000e700d600b000b100b200b333b433b500b600b855b900ba10bb33bc33bd00be00c000c100c220c333c433c500c600c855c900ca30cb33cc33cd00ce006c006d00e3
:400200006e006f00ff61006900600062006733683363006600d100d300d000d200e1ffe200dfffde02dd00e700ff0da970ef62000071106200006201ff70ef6203ff6202ec
:4002400000711062020062030070ef62010062040071106204006205ff70ef6207ff620600711062060062070070ef62050062088071106208ff62098070ef620b80620a01
:40028000007110620a00620b0070ef620900620c007110620c00620d0070ef620f00620e007110620e00620f0070ef620d00621000711062100062110070ef6213006212be
:4002c00000711062120062130070ef621100621400711062140062150070ef621700621600711062160062170070ef621500621800711062180062190070ef621b00621afe
:40030000007110621a00621b0070ef621900621c007110621c00621d0070ef621f00621e007110621e00621f0070ef621d0070ef7f5500805501ff5502807c03417c022c64
:400340007f1070ef500067500157b67c035c500167500257057c035c70ef207f380210084f56fc00d00456fc01182070ef62e30010082839ffa01f4f48fc01a00371105427
:40038000fd18207509001008284f59fd610018207509008fd738fc703f71c07f081028b00420187f9044201875dff2748fef30313233343536373839414243444546086795
:4003c000676767210fffe7902118210fffe0901a7f4b9fea5b9fe77f70bf60d35200a0069008758ff8703f71c07f90650867676767210f903b18210f40404090337f905171
:400400000867676767210f900918210f40404090017f0862d0002600805100600818210f29102a006008530040218f530060087f0862d0002600802e0020510060081821ee
:400440000f29302a00600853004021af530060087f0862d000260080510060082601f051017110600870ef2e004051006008401057ff2e00505100600840405d0808260084
:40048000c0510060084040402e00505100600840402600c051006008182108a00479bfd3202e017f51017110600870ef187f62d0002601802e017f26028051017110600854
:4004c0005102600970ef50fa906750fa906350039f405052905b50039f3890639061905f50039f2e505a904950029f26505a904150089f0a505a903950019f02505a9031a1
:4005000050069efa500e9ef6502c9ef250089eee500c9eea50039ee6505a90157f80c094d4210310fff74f03ff209ed2703f71c07f900c78bffc7f08193a7c01010101081f
:4005400071105de070ef21073905d006ffe978bffe187f104f800d1050147c0531207bfc1ffb003dfb00bff03dfc00bfeb207f104f380c711043088043098070cf430b807a
:4005800041087f5000085007089fc838fe430880560100560000800677010f00005201110652001900cff2711041087f43098070cf410b7f560700107c053f205d0862d001
:4005c00000735319261980a0042f0701107c053f205d0862d0005319471980a0042f07023d0703b1b65d0862d00053192619803c1980aff2560100560000800677010f0033
:40060000005201110852001900cff256010056000080355d0862d0005319471980aff5107c053f2066025d0862d00053192619803c1980b00b2f0201107c053f20800427c2
:4006400002fe77010f00005201110852001900cfc356010056000080355d0862d0005319471980aff5107c053f2066035d0862d00053192619803c1980b00b2f0301107c37
:40068000053f2080042703fe77010f00005201110852001900cfc356010056000080355d0862d0005319471980aff5107c053f2066045d0862d00053192619803c1980b0b0
:4006c0000b2f0401107c053f2080042704fe77010f00005201110852001900cfc356010056000080355d0862d0005319471980aff5107c053f2066055d0862d000531926c1
:4007000019803c1980b00b2f0501107c053f2080042705fe77010f00005201110852001900cfc356010056000080355d0862d0005319471980aff5107c053f2066065d0823
:4007400062d00053192619803c1980b00b2f0601107c053f2080042706fe77010f00005201110852001900cfc362d000520203035319520404195205041952063a19b01b72
:40078000520262d000531a5203531b5204531c5205531d62d0005001800662d000500038f4207f62d000511c21803980b004261c7f62d000511c218062d0007f104f3804a7
:4007c00062d000511d5403511c540262d00052025318500008511808500008500a087c0b9238fc511553185114531968196e185118540151195400520253195518005203d7
:400800002a18531850002a1953195118540151195400520153185200531938fc207f104f380462d000511b5402511a540362d0005203531955180052022a18531850002a15
:400840001953195118540151195400520153185200531938fc207f104f38031050010850aa5c187c039c209f3a62d0003901b00d1050010850a85c187c039c2050000850c2
:400880000a0862d000500008500a0852fb0852fc087c0b4e1853181838fe08511808500708107c0bd038fa62d00010500708187c03d850010850a65c187c039c2050000812
:4008c000500a0862d000500008500a0852fb0852fc087c0b4e38fe1853181808511808500708107c0bd038fa62d00010500708187c03d850010850a45c187c039c2038fda7
:40090000207f104f38031050010850a05c187c039c20500008500a0862d000500008500a0852fb0852fc087c0b4e1853181838fe08511808500708107c0bd038fa62d000dc
:4009400010500708187c03d850010850a65c187c039c20500008500a0862d000500008500a0852fb0852fc087c0b4e38fe1853181808511808500708107c0bd038fa62d001
:400980000010500708187c03d82038fd207f104f38055601005600005603005602005604007101107c04ae20819e7c056f62d0007c07bc62d00051185401511954001050b3
:4009c0000057007c052150010850b35c187c039c2062d0005000085064085200085201087c0b4e1853181838fe0618305118107c03ea2062d000500008500a08520008526a
:400a000001087c0b4e18531818531938fe500008500a085119085118087c0b4e38fe185318180618305118107c03ea50010850b15c187c039c2062d000500008500a0852e1
:400a400000085201087c0b4e38fe185318180618305118107c03ea50307c03ea207c081e62d000511854035119540210570050017c052150010850ad5c187c039c2062d04f
:400a8000005000085064085202085203087c0b4e1853181838fe0618305118107c03ea2062d000500008500a085202085203087c0b4e18531818531938fe500008500a0802
:400ac0005119085118087c0b4e38fe185318180618305118107c03ea50010850b15c187c039c2062d000500008500a085202085203087c0b4e38fe18531818061830511832
:400b0000107c03ea50307c03ea2062d000551f00551e00800962d000761f0e1e0062d000511f62d000531662d000511e62d000531751161110511719a4500019005000318d
:400b4000801980cfd177048e6238fb208fff104f7c0b5920703f71c07f5dd00862d00050005314531555131066fc6cfb6b146b1551141bfa51151bf9c009531552fa1c144b
:400b800077fc7a13bfe3511454fa511554f91860d07f104f5dd00862d00052f960e952fc60e85deb531452fa60e95deb53155dea48fc80a00303fa6cfad00303fc04145235
:400bc000fb60e85deb04141860d020703f71c07f104f380952fa540352f954023df900b02f3dfa00b02a62d00052fc531852fb60d550303f1852fc0101531852fb090060cc
:400c0000d550003f1852fc531852fb5319819752fa110052f931801980d0293df700b0243df80ab01f56060162d0005203735318520273531951180101540351190900542f
:400c400002800456060052fc540152fb540062d00052f70852f8085202085203087c0b4e38fe18531818531951185408511954075009130852073180531550801a15c02857
:400c800062d0005201531852005319511801015401511909005400520801305317511960d551173f18802662d0005201531852005319511801015401511909005400520877
:400cc00001575317511960d551173f1852f70852f80852020852030862d0007c0b4e18540318540238fe3d0200bf643d0300bf5f3d0600a02062d0005201531852005319ed
:400d0000511801015401511909005400511960d5502d3f1862d0005201531852005319511801ff5401511909ff5400511960d550003f1852fc540552fb5404805462d000ef
:400d400052055318520460d43e185406520553185204531951180101540551190900540452015316520060d43e165317511960d551173f185201531852005319511801ff21
:400d80005401511909ff5400511960d552063f185205130152041b00cfa462d00052fc531852fb531938f7207f00030010001a0006ff003030303030303030303030303067
:400dc00030303030303030303030303030303030303030303030303030303030303030303030303030303030303030303030303030303030303030303030303030303030f3
:400e000030303030303030303030303030303030303030303030303030303030303030303030303030303030303030303030303030303030303030303030303030303030b2
:400e40003030303030303030303030303030303030303030303030303030303030303030303030303030303030303030303030303030303030303030303030303030303072
:400e80003030303030303030303030303030303030303030303030303030303030303030303030303030303030303030303030303030303030303030303030303030303032
:020000040010ea
:020000040020da
:020000004fecc3
:00000001ff
